:1000000090009074FF75A0007590FFC2902094043A
:100010007400118C2095047401118C2096047402D4
:10002000118C2097047403118CD290C291209404F7
:100030007404118C2095047405118C2096047406A8
:10004000118C2097047407118CD291C292209404D1
:100050007408118C2095047409118C209604740A7C
:10006000118C209704740B118CD292C293209404AB
:10007000740C118C209504740D118C209604740E50
:10008000118C209783740F118C02000893F5A02225
:100090003F065B4F666D7D077F6FF7FCB9DEF9F1B8
:0100A000005F
:00000001FF
