:10088800204E61656D20417A616D20202000204650
:0A0898006F6C6C6F77204D65200037
:10086A007F381208CA7F0E1208CA7F011208CA7F8F
:0E087A00061208CA7F0C1208CA7F800208CA44
:0E08CA008FA0C280C281D2821208BBC28222DD
:0E08D8008FA0D280C281D2821208BBC28222BF
:100845008B088A09890AAB08AA09A90A1208A260B5
:1008550013050AE50A7002050914F91208A2FF1228
:0508650008D880E2222A
:0E08BB00E4FFFE0FBF00010EBE17F8BF71F57F
:0108C900220C
:1008000012086A7F801208CA7BFF7A08798812086A
:10081000457FC01208CA7BFF7A087996120845E422
:10082000FFFE0FBF00010EBE75F8BF30F57F01124D
:1008300008CAE4FEFFC3EF9430EE947550C50FBFB5
:0508400000010E80F034
:030000000208E60D
:0C08E600787FE4F6D8FD75810A02080056
:1008A200BB010689828A83E0225002E722BBFE0254
:0908B200E32289828A83E4932287
:00000001FF
