:0C0964000A083F065B4F666D7D077F6F41
:10094700758ACC758CD4D28C308DFDC28CC28D2229
:10088C008D13EF2481603024C0602924E060222481
:10089C00F0601B24F8601424FC600D24FE60061428
:1008AC0070187F00227F01227F02227F03227F04A7
:1008BC00227F05227F06227F07224313F3E51324B0
:1008CC0009600724FC70067F08227F09227FFF2223
:09097100E5B044F35590F4FF22B7
:0D0957007590FF75B0FF120971EF60FA2274
:1008DC00EFB40A0050439008E9F82828730209077E
:1008EC0002090A02090D0209100209130209160273
:1008FC00091902091C02091F0209227FC0227FF973
:10090C00227FA4227FB0227F99227F92227F822293
:0C091C007FF8227F80227F90227FFF2244
:100928004389115389FD120957120947120957AD16
:0F093800B0AF9012088C8F121208DC8FA080E7EE
:03000000020800F3
:0C080000787FE4F6D8FD758113020847EC
:10080C00020928E493A3F8E493A34003F68001F2D1
:10081C0008DFF48029E493A3F85407240CC8C333ED
:10082C00C4540F4420C8834004F456800146F6DFBC
:10083C00E4800B0102040810204080900964E47EDF
:10084C00019360BCA3FF543F30E509541FFEE493B1
:10085C00A360010ECF54C025E060A840B8E493A378
:10086C00FAE493A3F8E493A3C8C582C8CAC583CAA3
:10087C00F0A3C8C582C8CAC583CADFE9DEE780BE5B
:010970000086
:00000001FF
