:0300000002088271
:0C088200787FE4F6D8FD758107020800BD
:10086B00D3EF9400EE9400400DE4FD0DBD7DFCEF45
:06087B001F70ED1E80EA73
:010881002254
:10080000D2AF758920758BFD758DFDE4F5877598E0
:10081000D0D28ED2AC7599FF3099FDC2997F647E9B
:100820000012086B208014D29B7599013099FDC28B
:1008300099C29BE4F5993099FDC299208114D29B0D
:100840007599023099FDC299C29BE4F5993099FDE2
:10085000C2992082C8D29B7599033099FDC299C272
:0B0860009BE4F5993099FDC29980B22D
:00000001FF
