:03000000020800F3
:0C080000787FE4F6D8FD758120020847DF
:06090F00C100C101C1029C
:1008F800D3EF9400EE9400400DE4FD0DBD7DFCEFB8
:060908001F70ED1E80EAE5
:01090E0022C6
:1008CC00D2AF758920758BFD758DFDE4F587759814
:1008DC00F0D28E7590FFD2AC3098FDE599B4FF0440
:0C08EC00C2028002D202C298D29D80FE9F
:0300230002088C44
:10088C00C0E0C0D075D000C005C006C00730981BB2
:10089C00309A0DC29AE599B4030FC29DC2A080098B
:1008AC00D200859990D29DD2A0C2987F327E001240
:1008BC0008F87590FFD007D006D005D0D0D0E03224
:10080C000208CCE493A3F8E493A34003F68001F22E
:10081C0008DFF48029E493A3F85407240CC8C333ED
:10082C00C4540F4420C8834004F456800146F6DFBC
:10083C00E4800B010204081020408090090FE47E34
:10084C00019360BCA3FF543F30E509541FFEE493B1
:10085C00A360010ECF54C025E060A840B8E493A378
:10086C00FAE493A3F8E493A3C8C582C8CAC583CAA3
:10087C00F0A3C8C582C8CAC583CADFE9DEE780BE5B
:0109150000E1
:00000001FF
